:100000000C94B5030C94DD030C94DD030C94140DD7
:100010000C94140D0C94140D0C94DD030C94DD035E
:100020000C94DD030C94DD030C94DD030C94DD03D0
:100030000C94DD030C94DD030C94DD030C94DD03C0
:100040000C94CA0C0C94DD030C94C90B0C94A30BF8
:100050000C94DD030C94DD030C94DD030C94DD03A0
:100060000C94DD030C94DD0328173A173D17441751
:100070004B17791780178D179A17A617A617A6176B
:10008000A617A617A617A617A617A617A617A61788
:10009000A617A617A617A617A617A617A617A61778
:1000A000A617A617A617A617281735173A173D172C
:1000B00044174B1752175F176C176279204D696B05
:1000C000616C20486172740054657374696E6720B6
:1000D00054696E794750532B2B206C6962726172A0
:1000E0007920762E20004F4B21006661696C656493
:1000F0002100496E697469616C697A696E67205381
:100100004420636172642E2E2E0004E010021C074E
:10011000123732292D29252B3900010310E1100354
:100120001D07062E2C292D2E2E373F0000021013FE
:10013000800A298064022A040000007F2B0400004A
:10014000009F0F0180961180FFB103012C2DB20397
:10015000012C2DB306012C2D012C2DB40107C00359
:10016000A20284C101C5C2020A00C3028A2AC402D3
:100170008AEEC5010E20003601C83A0105494E56E7
:10018000414C49440030002E0030003A0030003A23
:100190000030002000494E56414C4944002F002FAA
:1001A000002020446174652F54696D653A20004930
:1001B0004E56414C4944002C004C6F636174696F8A
:1001C0006E3A20004E6F204750532064657465637B
:1001D0007465643A20636865636B20776972696E41
:1001E000672E001E011E002D022D113C034B214BDA
:1001F000315A125A045A415A516961697169226926
:10020000137805783278818791871487A187B19612
:1002100042962396C1965296D1A5F0A533A524A562
:1002200062A5E1A572B482B492B443B453B415B4D8
:1002300063B473C334C3F1C325C306C316C3A2C3D7
:10024000B2D283D207D226D235D2C2D2D2E144E191
:1002500093E154E1A3E117F064F045F055F036F076
:1002600074F065F0E2F0F2F0B3F084F0C3F0D3F094
:1002700075F0E3F0F3F046F094F0A4F085F0B4F0FC
:1002800095F0C4F0D4F0E4F0F4F0A5F0B5F0C5F0CA
:10029000D5F0E5F0F5F056F066F076F086F096F0E1
:1002A000A6F0B6F0C6F0D6F0E6F0F6F027F037F09C
:1002B00047F057F067F077F087F097F0A7F0B7F0C6
:1002C000C71E012D002D022D112D033C044B214B87
:1002D000124B315A055A4169516961691369227893
:1002E000717881873287068714879187A196B196A6
:1002F00042962396249615965296C1A562A533A5DB
:1003000034A572A582A5D1B443B407B425B492B480
:1003100053B4F0B4E1B4F1C363C373C335C316C3BC
:10032000A2D2B2D283D226E144E193E154E164E166
:1003300045E1C2E1A3E174E136E117E1D2E155F014
:10034000E2F065F0F2F0B3F084F0C3F0D3F075F0B2
:10035000E3F0F3F046F027F094F0A4F085F0B4F069
:1003600095F0C4F0D4F0E4F0F4F0A5F0B5F0C5F0E9
:10037000D5F0E5F0F5F056F066F076F086F096F000
:10038000A6F0B6F0C6F0D6F0E6F0F6F037F047F09B
:1003900057F067F077F087F097F0A7F0B7F0C7F065
:1003A000D7F0E7F0F71E012D002D022D032D042DAF
:1003B000053C064B075A086909780A870B000000BC
:1003C00000003E5B4F5B3E3E6B4F6B3E1C3E7C3EF7
:1003D0001C183C7E3C181C577D571C1C5E7F5E1C05
:1003E00000183C1800FFE7C3E7FF0018241800FFBF
:1003F000E7DBE7FF30483A060E2629792926407FB9
:10040000050507407F05253F5A3CE73C5A7F3E1CC7
:100410001C08081C1C3E7F14227F22145F5F005FB3
:100420005F06097F017F006689956A606060606091
:1004300094A2FFA29408047E040810207E201008D5
:10044000082A1C08081C2A08081E101010100C1E70
:100450000C1E0C30383E3830060E3E0E06000000F2
:10046000000000005F00000007000700147F147FF9
:1004700014242A7F2A122313086462364956205016
:100480000008070300001C2241000041221C002A32
:100490001C7F1C2A08083E080800807030000808ED
:1004A000080808000060600020100804023E51495E
:1004B000453E00427F400072494949462141494D2D
:1004C000331814127F1027454545393C4A494931B4
:1004D00041211109073649494936464949291E0033
:1004E00000140000004034000000081422411414DD
:1004F000141414004122140802015909063E415DFA
:10050000594E7C1211127C7F494949363E41414186
:10051000227F4141413E7F494949417F0909090103
:100520003E414151737F0808087F00417F41002010
:1005300040413F017F081422417F404040407F02FC
:100540001C027F7F0408107F3E4141413E7F090924
:1005500009063E4151215E7F09192946264949492C
:100560003203017F01033F4040403F1F2040201FD6
:100570003F4038403F631408146303047804036168
:1005800059494D43007F4141410204081020004178
:1005900041417F0402010204404040404000030703
:1005A000080020545478407F284444383844444458
:1005B00028384444287F385454541800087E0902CF
:1005C00018A4A49C787F0804047800447D4000208F
:1005D00040403D007F1028440000417F40007C04E3
:1005E0007804787C080404783844444438FC18249F
:1005F000241818242418FC7C080404084854545473
:100600002404043F44243C4040207C1C2040201C07
:100610003C4030403C44281028444C9090907C440E
:1006200064544C440008364100000077000000414B
:100630003608001E032D002D012D022D042D053C32
:10064000064B075A086909780A870B000108100948
:1006500002030A11182019120B04050C131A212881
:100660003029221B140D06070E151C232A31383998
:10067000322B241D160F171E252C333A3B342D2602
:100680001F272E353C3D362F373E3F0C0808080902
:10069000080C09090C110B0A0B11150F0C0C0F1586
:1006A00018131315131318110C0C0C0C0C0C110C43
:1006B0000C0C0C0C0C0C0C0C0C0C0C0C0C0C0C0C7A
:1006C0000C0C0C0C0C0C0C0C0C0C0C0D0B0B0D0E68
:1006D0000D100E0E10140E0E0E14140E0E0E0E141F
:1006E000110C0C0C0C0C11110C0C0C0C0C0C110C36
:1006F0000C0C0C0C0C0C0C0C0C0C0C0C0C0C0C0C3A
:100700000C0C0C0C0C0C0C0C0C0C0C000000002441
:100710000027002A00000000080002010000030476
:100720000700000000000000000000000023002679
:1007300000290000000000250028002B000404040C
:10074000040404040402020202020203030303037A
:100750000301020408102040800102040810200157
:10076000020408102000D5226A1F11241FBECFEFFB
:10077000D8E0DEBFCDBF11E0A0E0B1E0EEE8FFE4DD
:1007800002C005900D92A03BB107D9F724E0A0EB81
:10079000B1E001C01D92A33FB207E1F713E0C4EB43
:1007A000D3E004C02197FE010E945A27C33BD10722
:1007B000C9F70E948C100C94BA270C940000EF9299
:1007C000FF920F931F93DC011A960D911C911B97BA
:1007D00018962D913C911997ED91FC910288F3891F
:1007E000E02D7B0140E050E060E070E009951F9152
:1007F0000F91FF90EF9008954C7F38E0439FC00128
:10080000112430E043E0359527954A95E1F7822B96
:10081000932B687F962B089508952F923F924F92C5
:100820005F926F927F928F929F92AF92BF92CF9280
:10083000DF92EF92FF920F931F93CF93DF93CDB789
:10084000DEB72D970FB6F894DEBF0FBECDBF9D83E8
:100850008C836A30A1F4DC0154962C9154971E9637
:100860008D919C911F97B8E02B9F800D911D1124B5
:10087000EC81FD819787868715861486F1C06D30DF
:1008800009F4EEC02C813D813D872C87D9011C964F
:10089000CD90DC901D9718968D919C911997C81654
:1008A000D906BCF0EC85FD854489242F30E0848591
:1008B0009585F6E04F9F800D911D1124AC85BD8577
:1008C0001D969C938E931C9756964C914111A4C0F3
:1008D000C7C0EC85FD8586849784828593858816BC
:1008E000990604F7F489F983AF2EB12CC60126E0EE
:1008F000F29F800D911D1124181619069CF6C50152
:1009000023E0880F991F2A95E1F7880D991D181685
:10091000190644F6AC85BD8552960D90BC91A02D6C
:10092000BD83AC83EC85FD850088F189E02DFF83D4
:10093000EE83F5E06F9FB001112416011A829B012E
:100940002C193D0939872887C40108969B878A8717
:100950009A81953049F0E885F985E20DF31DE3545D
:10096000FC4FA491AB8301C01B8224013401BB81E5
:10097000B0FF13C0AC85BD85ED91FC91B981B1305C
:1009800031F40084F185E02D2E813F8119C0028869
:10099000F389E02DEE80FF801EC0EC81FD812E8169
:1009A0003F81E217F307F1F0AC85BD85ED91FC9135
:1009B000B981B13059F40084F185E02D2C813D815D
:1009C000A301B1018C859D8509950CC00288F3892E
:1009D000E02DEC80FD8085019501A201B6018C859A
:1009E0009D850995EB81E695EB83FFEF6F1A7F0AF2
:1009F0004A0C5B1C2A853B852615370509F0B7CFC5
:100A00003A813F5F3A835FEF251A350ACA0CDB1C37
:100A1000363009F09DCF46CF4AEF4203B001439FE5
:100A2000700D1124AC85BD8518964D915C91199778
:100A3000460F571F481759079CF483E0220F331FB6
:100A40008A95E1F71E968D919C911F97280F391F6B
:100A50001F963C932E931E971D961C921E921C97D8
:100A600081E090E02D960FB6F894DEBF0FBECDBFAB
:100A7000DF91CF911F910F91FF90EF90DF90CF907A
:100A8000BF90AF909F908F907F906F905F904F90AE
:100A90003F902F9008956F927F928F929F92AF9286
:100AA000BF92CF92DF92EF92FF920F931F93CF935B
:100AB000DF93EC014B015A0169013801E881F981AA
:100AC0000684F785E02D87010995A501460D571D80
:100AD00041505109E881F9810684F785E02D96019E
:100AE000B401CE010995E881F9810484F585E02DF2
:100AF0009301A501B401CE010995C80CD91CB6011A
:100B000061507109E881F9810484F585E02D930134
:100B1000A501CE010995DF91CF911F910F91FF9013
:100B2000EF90DF90CF90BF90AF909F908F907F908D
:100B30006F9008952F923F924F925F926F927F92A3
:100B40008F929F92AF92BF92CF92DF92EF92FF92DD
:100B50000F931F93CF93DF9300D000D000D0CDB779
:100B6000DEB72C017E836D836A015901C801FC82C6
:100B7000EB824801841A950A97FE03C091948194F0
:100B8000910835012D813E81621A730A77FE03C0F8
:100B9000719461947108681479045CF43A2D2B2DDA
:100BA0005C01832F922F3D812E81DE82CD82C32E68
:100BB000D22EAD81BE81AA16BB065CF43C2D2D2D34
:100BC0006C01832F922F3D812E81BE82AD82A32E98
:100BD000B22E85012D813E81021B130B1C012C18A6
:100BE0003D0837FE03C0319421943108780117FF86
:100BF00003C03FEFE31AF30AF594E794C816D90649
:100C00002CF08FEF9FEF9A83898304C0A1E0B0E0BE
:100C1000BA83A9832D813E81A216B30624F1D201A5
:100C2000ED91FC910084F185E02D2B813C816814CD
:100C3000790424F44D815E81B60103C0A6016D8163
:100C40007E81C2010995E218F308F7FE06C02981EA
:100C50003A81C20ED31EE00EF11E8D819E81019657
:100C60009E838D83D7CF26960FB6F894DEBF0FBE36
:100C7000CDBFDF91CF911F910F91FF90EF90DF904B
:100C8000CF90BF90AF909F908F907F906F905F902C
:100C90004F903F902F900895089580E090E0089540
:100CA000CF93DF93EC018A859B85AC85BD858E83D0
:100CB0009F83A887B9870E94BE0C6A837B838C833D
:100CC0009D8381E089838883DF91CF910895CF93BD
:100CD000DF93EC018E819F81A885B9858A839B83F0
:100CE000AC83BD830E94BE0C6A877B878C879D87FF
:100CF00081E089838883DF91CF9108952F923F927D
:100D00004F925F926F927F928F929F92AF92BF921B
:100D1000CF92DF92EF92FF920F931F93CF93DF93C7
:100D2000D82FC92F8B010E949C2424E630E040E09C
:100D300050E00E94382749015A019B01AC0160E84C
:100D400076E988E990E00E9414276B017C01F801A4
:100D500091828082ED2FFC2F2191822F022E000C98
:100D6000990BC0970A97C0F32E3239F51F0180E81E
:100D7000882E86E9982E88E9A82EB12C9AE0492E73
:100D8000512C612C712CF101C1911F010C2E000C12
:100D9000DD0BE097CA30D10580F4C501B401A30191
:100DA00092010E94382749015A01DE010E946B27F7
:100DB000C60ED71EE81EF91EE6CFA5E0B0E0A701DB
:100DC00096010E9460276F5F7F4F8F4F9F4F23E0F8
:100DD00030E040E050E00E943827F801228333835E
:100DE000448355831682DF91CF911F910F91FF901D
:100DF000EF90DF90CF90BF90AF909F908F907F90BB
:100E00006F905F904F903F902F900895FF920F93B7
:100E10001F93CF93DF93EC01F8802DE2F21201C013
:100E20002196CE010E949C249B01AC01A4E6B0E077
:100E30000E946027FE014991242F042E000C330BE1
:100E4000205331092A303105A8F34E3241F5218172
:100E5000022E000C330B205331092A303105F8F4EF
:100E60004AE0429F8001439F100D1124012E000C87
:100E7000220B330B600F711F821F931F0281002E04
:100E8000000C110B005311090A30110540F4012E1A
:100E9000000C220B330B600F711F821F931F2DE27A
:100EA000F21207C090958095709561957F4F8F4F96
:100EB0009F4FDF91CF911F910F91FF900895AC014B
:100EC000542F4427550F550F550F9C01207E377026
:100ED000242B352B892F9927869586958695822BED
:100EE000932B089508958EBD00000DB407FEFDCF2D
:100EF0008EB508958FEF0C947307FC01862F968DA5
:100F000091110C94730728E030E040E8A1A1B2A150
:100F100096A5582F542319F05C91952B03C05C9132
:100F2000909595239C93A3A1B4A15C9197A5952B33
:100F30009C93A3A1B4A15C9197A5909595239C93B4
:100F400046952150310911F708958CBD9DBD089536
:100F50001F93CF93DF93EC01162F8E8D882321F002
:100F60008F8D98A10E94A507EFA1F8A5908189A96E
:100F7000892B8083EDA1FEA1908188A9809589238A
:100F80008083612FCE010E947D07EDA1FEA190819B
:100F900088A9892B8083DF91CF911F9108951F939A
:100FA000CF93DF93EC01162F8E8D882321F08F8D48
:100FB00098A10E94A507EFA1F8A5908189A9809525
:100FC00089238083EDA1FEA1908188A98095892342
:100FD0008083612FCE010E947D07EDA1FEA190814B
:100FE00088A9892B8083DF91CF911F91089561118A
:100FF00002C060E201C061E20C94CF07EF92FF9261
:101000000F931F93CF93DF93EC01E62E142FF22E54
:101010006AE20E94CF0760E0CE010E94A8076AA999
:101020006E0DCE010E94A80760E0CE010E94A807C5
:101030006AA96F0DCE010E94A8076BE2CE010E9443
:10104000CF0760E0CE010E94A8076BA9610FCE0117
:101050000E94A80760E0CE010E94A8076BA9600F5C
:10106000CE010E94A8076CE2CE01DF91CF911F91C3
:101070000F91FF90EF900C94CF076F927F928F9219
:101080009F92AF92BF92CF92DF92EF92FF920F9317
:101090001F93CF93DF93EC014B013A015901680193
:1010A00028853985621773070CF05BC08A859B859C
:1010B000481759070CF055C0AB014A0D5B1D2417AA
:1010C00035071CF45901A61AB70A93012C0D3D1DD2
:1010D000821793071CF46C01C618D7088D8D8230D7
:1010E00021F4C7010E945F077C010FEF060D0C0D74
:1010F0002FEF280D2A0D462D682DCE010E94FE07E8
:101100008E8D882321F08F8D98A10E94A507EFA1D5
:10111000F8A5908189A9892B8083EDA1FEA19081FA
:1011200088A98095892380831C141D04A4F445019B
:101130001814190464F46F2DCE010E947D076E2DE2
:10114000CE010E947D0781E0881A9108F1CF81E0ED
:10115000C81AD108E9CFEDA1FEA1908188A9892BF9
:101160008083DF91CF911F910F91FF90EF90DF90DF
:10117000CF90BF90AF909F908F907F906F90089589
:10118000DF92EF92FF920F931F93CF93DF93EC01C7
:101190007901D02E88859985681779070CF048C0A9
:1011A0002A853B85421753070CF042C09B012E0D48
:1011B0003F1D821793071CF47C01E61AF70A2FEFF4
:1011C000260F2E0D042FCE010E94FE078D8D82303A
:1011D00031F48D2D912F0E945F07D82E192F8E8DFF
:1011E000882321F08F8D98A10E94A507EFA1F8A573
:1011F000908189A9892B8083EDA1FEA1908188A986
:10120000809589238083E114F10461F0612FCE0180
:101210000E947D076D2DCE010E947D0781E0E81AB6
:10122000F108F1CFEDA1FEA1908188A9892B8083DF
:10123000DF91CF911F910F91FF90EF90DF90089574
:10124000DF92EF92FF920F931F93CF93DF93EC0106
:101250007901D02E88859985681779070CF048C0E8
:101260008A859B85481759070CF042C09A012E0DBC
:101270003F1D821793071CF47C01E41AF50A0FEF57
:10128000040F0E0D262FCE010E94FE078D8D823099
:1012900031F48D2D912F0E945F07D82E192F8E8D3E
:1012A000882321F08F8D98A10E94A507EFA1F8A5B2
:1012B000908189A9892B8083EDA1FEA1908188A9C5
:1012C000809589238083E114F10461F0612FCE01C0
:1012D0000E947D076D2DCE010E947D0781E0E81AF6
:1012E000F108F1CFEDA1FEA1908188A9892B80831F
:1012F000DF91CF911F910F91FF90EF90DF900895B4
:10130000FF920F931F93CF93DF93EC01122FF32ED5
:1013100077FD3EC08885998568177907CCF557FD1C
:1013200037C08A859B854817590794F501E0040F5B
:1013300021E0260FCE010E94FE078E8D882321F02A
:101340008F8D98A10E94A507EFA1F8A5908189A98A
:10135000892B8083EDA1FEA1908188A980958923A6
:1013600080838D8D823031F4812F9F2D0E945F0705
:10137000182FF92E6F2DCE010E947D07612FCE010F
:101380000E947D07EDA1FEA1908188A9892B808311
:10139000DF91CF911F910F91FF900895CF92DF922F
:1013A000EF92FF920F931F93CF93DF936C017A011B
:1013B0008B01C0E0D0E0CE15DF0581F0D8016D9142
:1013C0008D01D601ED91FC910190F081E02DC601D7
:1013D0000995892B11F02196EECF7E01C701DF918F
:1013E000CF911F910F91FF90EF90DF90CF900895D4
:1013F000FC01538D448D252F30E0842F90E0821B1B
:10140000930B541710F0CF96089501970895FC019F
:10141000918D828D981761F0828DDF01A80FB11D2B
:101420005D968C91928D9F5F9F73928F90E008954F
:101430008FEF9FEF0895FC01918D828D981731F009
:10144000828DE80FF11D858D90E008958FEF9FEF5D
:101450000895FC01918D228D892F90E0805C9F4F33
:10146000821B91098F739927089587E493E00E9466
:10147000290A21E0892B09F420E0822F0895FC013C
:10148000848DDF01A80FB11DA35ABF4F2C91848D0D
:1014900090E001968F739927848FA689B7892C9342
:1014A000A089B1898C91837080648C93938D848D95
:1014B000981306C00288F389E02D80818F7D808398
:1014C0000895EF92FF920F931F93CF93DF93EC0158
:1014D00081E0888F9B8D8C8D981305C0E889F989F0
:1014E000808185FD26C0F62E0B8D10E00F5F1F4F0B
:1014F0000F731127E02E8C8DE8120CC00FB607FC7D
:10150000FACFE889F989808185FFF5CFCE010E9465
:101510003F0AF1CF8B8DFE01E80FF11DE35AFF4F1B
:10152000F0829FB7F8940B8FEA89FB8980818062F3
:101530000AC09FB7F894EE89FF896083E889F9892A
:1015400080818370806480839FBF81E090E0DF9121
:10155000CF911F910F91FF90EF900895CF93DF935C
:10156000EC01888D8823C9F0EA89FB89808185FD9B
:1015700005C0A889B9898C9186FD0FC00FB607FCFC
:10158000F5CF808185FFF2CFA889B9898C9185FF3D
:10159000EDCFCE010E943F0AE7CFDF91CF910895B2
:1015A00080E090E0892B29F00E94350A81110C948B
:1015B000000008953FB7F89480914303909144034D
:1015C000A0914503B091460326B5A89B05C02F3FC7
:1015D00019F00196A11DB11D3FBFBA2FA92F982F59
:1015E0008827820F911DA11DB11DBC01CD0142E0D4
:1015F000660F771F881F991F4A95D1F7089520918C
:10160000B2013091B3012817390771F49091B001FC
:101610008091B101981741F0E091B001F0E0E25003
:10162000FD4F808190E008958FEF9FEF089508951A
:101630001F93CF93DF93DC015C968D919C915D9716
:10164000009739F421E030E013963C932E931297E3
:101650003BC05196ED91FC91529750962C9150972A
:10166000322F30951FB75E964C915E97742F727033
:1016700041FD6095F8944081772311F0422B01C021
:1016800043234083EC012197F1F748E0508160FF4C
:1016900002C0522B01C053235083EC012197F1F774
:1016A0006695415099F78081772319F083238083D1
:1016B00002C0282B20831FBF5C968D919C915D9763
:1016C0000197F1F781E090E0DF91CF911F910895AC
:1016D0002091B2013091B3012817390771F480913C
:1016E000B1012091B00190E0805C9F4F821B910975
:1016F00060E470E00E942427089580E090E008955F
:101700002091B2013091B30128173907B9F49091B3
:10171000B0018091B101981789F0E091B001F0E03B
:10172000E250FD4F80812091B00130E02F5F3F4FAC
:101730002F7333272093B00190E008958FEF9FEF30
:1017400008950E9496271F920F920FB60F921124B0
:101750002F933F934F935F936F937F938F939F93B9
:10176000AF93BF93EF93FF9387E493E00E943F0A08
:10177000FF91EF91BF91AF919F918F917F916F9169
:101780005F914F913F912F910F900FBE0F901F903F
:1017900018951F920F920FB60F9211242F938F93CB
:1017A0009F93EF93FF93E0915703F091580380814B
:1017B000E0915D03F0915E0382FD12C09081809103
:1017C00060038F5F8F7320916103821751F0E09166
:1017D0006003F0E0E95BFC4F958F8093600301C0EC
:1017E0008081FF91EF919F918F912F910F900FBE6C
:1017F0000F901F90189590E0FC01EB5EF84F24913C
:10180000FC01EF5AF84F3491FC01E35CF84FE4918E
:10181000EE2309F43CC0222339F1233091F038F44F
:101820002130A9F0223001F584B58F7D12C0273018
:1018300091F02830A1F02430B9F4809180008F7DA0
:1018400003C0809180008F77809380000DC084B5A5
:101850008F7784BD09C08091B0008F7703C08091DD
:10186000B0008F7D8093B000F0E0EE0FFF1FED5CC5
:10187000F84FA591B4919FB7F894611104C08C9171
:101880003095382302C0EC913E2B3C939FBF0895C6
:10189000CF93DF9390E0FC01EF5AF84F2491FC01C5
:1018A000E35CF84F8491882361F190E0880F991FE1
:1018B000FC01E55FF84FC591D491FC01ED5CF84F58
:1018C000A591B491611109C09FB7F89488812095C2
:1018D00082238883EC912E230BC0623061F49FB782
:1018E000F8948881322F309583238883EC912E2BB6
:1018F0002C939FBF06C08FB7F894E8812E2B2883C6
:101900008FBFDF91CF9108958F929F92AF92BF9238
:10191000CF92DF92EF92FF926B017C010E94DA0A74
:101920004B015C01C114D104E104F104F1F00E9407
:10193000DA0ADC01CB0188199909AA09BB09883E9A
:101940009340A105B10570F321E0C21AD108E10866
:10195000F10888EE880E83E0981EA11CB11CC1140A
:10196000D104E104F10419F7DDCFFF90EF90DF908F
:10197000CF90BF90AF909F908F9008952FB7F8941D
:1019800060913F0370914003809141039091420325
:101990002FBF08951F920F920FB60F9211242F930D
:1019A0003F938F939F93AF93BF9380913F03909109
:1019B0004003A0914103B091420330913E0323E0E4
:1019C000230F2D3720F40196A11DB11D05C026E877
:1019D000230F0296A11DB11D20933E0380933F0368
:1019E00090934003A0934103B0934203809143033B
:1019F00090914403A0914503B09146030196A11D27
:101A0000B11D8093430390934403A0934503B09387
:101A10004603BF91AF919F918F913F912F910F906E
:101A20000FBE0F901F9018951F920F920FB60F9236
:101A300011242F933F934F935F936F937F938F93D3
:101A40009F93AF93BF93EF93FF93E091B201F09117
:101A5000B301309709F451C0968DA685B785858569
:101A600091FF04C09C91892329F447C09C9189234C
:101A700009F043C0A389B4899C9185898095892305
:101A80008C93868997890197F1F7608D718DA68572
:101A9000B785558538E020E0CB010197F1F7822F1B
:101AA00090E095958795282F4C91452309F0206863
:101AB000315091F7868D81FD20958091B10190E0A4
:101AC00001968F7399273091B001381749F0A09192
:101AD000B101B0E0A250BD4F2C938093B10103C07F
:101AE000868D8160868F828D938D0197F1F7A38912
:101AF000B4899C918589892B8C93FF91EF91BF913B
:101B0000AF919F918F917F916F915F914F913F9195
:101B10002F910F900FBE0F901F901895CF93CFB7B6
:101B2000F8948091FD02811127C0E7E4F7E08491E9
:101B3000EBE5F7E09491E82FF0E0EE0FFF1FE55F93
:101B4000F84FA591B491EC91E92321F461E08AE08A
:101B50000E94FB0B61E08AE00E94480C8CB580611A
:101B60008CBD8CB580648CBD61E08DE00E94480C1A
:101B700061E08BE00E94480C8091FD028F5F8093B2
:101B8000FD02CFBFCF910895CF92DF92EF92FF92E7
:101B90000F931F93CF93DF93EC012196FC01F490F8
:101BA000FF2009F437C0FE01649182EF93E00E94A8
:101BB000CF076E01F2E0CF0ED11CFE013196C49129
:101BC0008C2F8078E82ECF778601DC2FD15048F01B
:101BD000F801649182EF93E00E94A8070F5F1F4F06
:101BE000F5CFC6018C0F911DEC01E11002C0FA94F3
:101BF000D7CF8C010F5F1F4FFC01649170E06F3FE6
:101C0000710511F464EF71E080E090E00E94840CB3
:101C1000E801EDCFDF91CF911F910F91FF90EF90F1
:101C2000DF90CF900895009769F0FC0101900020AB
:101C3000E9F73197AF01481B590BBC0187E493E0EA
:101C40000C94CE0980E090E0089580EA91E00C9435
:101C5000130E0F931F93CF93DF938C01C0E0D0E05E
:101C6000F801EC0FFD1F6491662341F087E493E0D7
:101C70000E94610A892B11F02196F2CFCE01DF91EB
:101C8000CF911F910F910895CF93DF930E94290E5A
:101C9000EC010E94250E8C0F9D1FDF91CF910895BE
:101CA000CF93DF930E94130EEC010E94250E8C0F40
:101CB0009D1FDF91CF9108958F929F92AF92BF9217
:101CC0000F931F93CF93DF93CDB7DEB7A1970FB6D6
:101CD000F894DEBF0FBECDBF19A2423008F44AE02F
:101CE0008E010F5D1F4F842E912CA12CB12CA501CC
:101CF00094010E943827E62FB901CA010150110949
:101D0000EA3014F4E05D01C0E95CD801EC93232BC8
:101D1000242B252B61F7C8010E94130EA1960FB644
:101D2000F894DEBF0FBECDBFDF91CF911F910F9111
:101D3000BF90AF909F908F900895682F70E080E0E3
:101D400090E04AE00C945C0E8F929F92AF92BF920B
:101D5000CF92DF92EF92FF920F931F93CF93DF9377
:101D60006B017C01142F9B01AC010E940F2788237B
:101D700019F083EA91E027C046015701E894B7F8CB
:101D80002FEF3FEF4FE75FE7C501B4010E940F2738
:101D900081110DC02FEF3FEF4FE75FE7C501B401A1
:101DA0000E94452518161CF487EA91E00CC02FEF1D
:101DB0003FEF4FE75FE4C701B6010E949D2618166A
:101DC00084F48BEA91E0DF91CF911F910F91FF9006
:101DD000EF90DF90CF90BF90AF909F908F900C943A
:101DE000130E2FEF3FEF4FE75FECC701B6010E94E4
:101DF000452587FDE6CF20E030E0A901C701B60107
:101E00000E94452587FF0BC06DE287E493E00E94A6
:101E1000610AEC01F7FAF094F7F8F09402C0C0E020
:101E2000D0E000E060E070E080E09FE3101741F058
:101E300020E030E040E251E40E944A250F5FF6CFF7
:101E4000A70196010E94D9246B017C010E94BC2548
:101E50004B015C014AE00E945C0EC80FD91F1123A0
:101E6000B9F1C501B4010E94EB259B01AC01C7018A
:101E7000B6010E94D8246B017C016EE287E493E0F6
:101E80000E94610AC80FD91F20E030E040E251E40F
:101E9000C701B6010E94A2264B015C010E94BC252D
:101EA0006B01E12CF12C4AE0C701B6010E945C0EE7
:101EB000C80FD91FC701B6010E94EB259B01AC01D9
:101EC000C501B4010E94D8246B017C011150E1F6D8
:101ED000CE01DF91CF911F910F91FF90EF90DF9096
:101EE000CF90BF90AF909F908F9008958091F20413
:101EF000811109C081E08093F2048091E403909104
:101F0000E5030E94A50760E08091EA030C94FB0BB7
:101F1000CF92DF92EF92FF921F93CF93DF93182F10
:101F20006A017B010E94760F0E94BE0CEB010E94A9
:101F30007A078F3F39F4812F80640E947307C8E1CC
:101F4000D0E008C00E94BE0C6C1B7D0B6C3271404F
:101F500070F3F1CFD701C6010C2E04C0B695A7953A
:101F6000979587950A94D2F70E9473072897C83FE0
:101F70008FEFD80779F7112321F0183021F487E883
:101F800003C085E901C08FEF0E947307C0E00E9483
:101F90007A078093F00387FF04C0CF3F11F0CF5F33
:101FA000F6CFDF91CF911F91FF90EF90DF90CF9010
:101FB000089561E08091EA030E94FB0B8091F20496
:101FC000882321F01092F2040C94720708958F92E6
:101FD0009F92AF92BF92CF92DF92EF92FF920F93B8
:101FE0001F93CF93DF93EA017901240F351F21302E
:101FF000324008F081C02091EC032223A9F08090A8
:10200000E6039090E703A090E803B090E9038616FA
:102010009706A806B90641F42091ED033091EE032E
:10202000C217D30708F03FC06093E6037093E7033D
:102030008093E8039093E9032091F103233039F072
:1020400029E0660F771F881F991F2A95D1F7AB01EA
:10205000BC0181E10E94880F882321F083E08093F6
:10206000EB034AC00E94BE0C6B010E947A0780936A
:10207000F0038F3F49F40E94BE0C6C197D096D324C
:10208000714098F38FE003C08E3F31F08DE0809374
:10209000EB030E94D90F30C01092EE031092ED03B3
:1020A00081E08093EC038091ED039091EE038C1717
:1020B0009D0760F40E947A078091ED039091EE03F2
:1020C00001969093EE038093ED03EDCFE8010E0DA2
:1020D0001F1D0C171D0721F00E947A078993F9CF65
:1020E0008091ED039091EE03E80EF91EF092EE035D
:1020F000E092ED0381E003C00E94D90F80E0DF9100
:10210000CF911F910F91FF90EF90DF90CF90BF90F4
:10211000AF909F908F900895789484B5826084BD2D
:1021200084B5816084BD85B5826085BD85B58160DB
:1021300085BD80916E00816080936E001092810059
:102140008091810082608093810080918100816014
:1021500080938100809180008160809380008091D5
:10216000B10084608093B1008091B0008160809361
:10217000B00080917A00846080937A0080917A0028
:10218000826080937A0080917A00816080937A00E7
:1021900080917A00806880937A001092C10060E09C
:1021A00082E00E94480C61E083E00E94480C10929B
:1021B000EE041092ED041092EC041092EB041092D5
:1021C000EA041092E9048DE991E09093F004809381
:1021D000EF049091DF04963108F058C02DEB30E009
:1021E0003093EA042093E9042BE931E03093EC04C6
:1021F0002093EB042CE231E03093EE042093ED04C5
:1022000040916800983058F031E09E3008F430E09A
:1022100021E0822F01C0880F3A95EAF701C084E0DF
:10222000842B80936800983038F09E3040F09631CF
:1022300048F020E030E008C02DE630E005C02BE695
:1022400030E002C02CE630E03093E7042093E6044F
:10225000983030F481E001C0880F9A95EAF70EC0FB
:10226000292F30E09E3018F42850310902C02E503A
:10227000310981E001C0880F2A95EAF78093E804CC
:102280008091EF049091F0040197F1F78091ED04B3
:102290009091EE04892B49F1E091B201F091B301E4
:1022A00024E0E33DF20709F1309739F0A389B489BE
:1022B0009C918589809589238C938091F1048E7FF0
:1022C0008093F1041092B1011092B00183ED94E07B
:1022D0009093B3018093B201E091E604F091E7049A
:1022E00090818091E804892B808388EC90E00E94A3
:1022F000290E88E491E00E94500E8AEB90E00E9443
:10230000440E0E94250E82EF90E00E94290E10924A
:10231000F1031092EF031092EC031092EB0384E0B0
:102320008093EA030E94BE0C6B017C0161E0809106
:10233000EA030E94480C61E08091EA030E94FB0BD3
:102340000E948E0D82E58093E4031092E503809154
:10235000E4039091E5030E94A507CAE08FEF0E9475
:102360007307C150D9F7E6010E9472070E94760FE9
:1023700040E050E0BA0180E00E94880F182F80935F
:10238000F003813049F00E94BE0C6C1B7D0B613D57
:10239000774070F381E04CC04AEA51E060E070E0C1
:1023A00088E00E94880F82FF03C01093F1030EC0E3
:1023B00014E00E947A078093F0031150D1F78A3A13
:1023C00011F082E035C082E08093F1038091F10347
:1023D000823021F0C12CD12C760105C0C12CD12C2A
:1023E000E12C10E4F12E40E050E0BA0187E30E94B6
:1023F000880FB701A60189E20E94880F8093F0033D
:10240000882349F00E94BE0C6C1B7D0B613D774018
:1024100050F388E00DC08091F103823001F540E077
:1024200050E0BA018AE30E94880F882351F086E0C9
:102430008093EB030E94D90F8AEE90E00E94440E35
:1024400047C00E947A07807C803C19F483E0809327
:10245000F1030E947A070E947A070E947A070E947D
:10246000D90F80E58093E4031092E50386EE90E0B7
:102470000E94440E4091F7025091F8026091F502DB
:102480007091F602072E000C880B990B01E712E001
:1024900024E830E00E94E70F882309F4A8C184E80B
:1024A00090E09093F8028093F70281E792E0909396
:1024B000B7018093B6018EE49EE09093B9018093BA
:1024C000B801C5E04C2E512C66246394712C23C0B6
:1024D000FFCF8091B8019091B90102970CF487C1A8
:1024E00082E090E00E94021BE091B601F091B701FA
:1024F000319780818A3D09F471C18D3D09F44DC148
:10250000803C09F074C10E942B1B8091B401909112
:10251000B501892B39F08091B4019091B5010097F4
:10252000C1F25FC18091BA019091BB0109972CF46F
:102530005092B5014092B401EECFE091B601F09116
:10254000B7018081883019F5818192819827892788
:1025500098279093BF018093BE0123813481322755
:10256000232732273093BD012093BC01232B01F395
:10257000892BF1F285818093C80186E090E00E946A
:10258000021B8091C801813049F0833039F082E02C
:1025900090E09093B5018093B401BDCFA3E08A028F
:1025A000C00111242091BA013091BB0128173907CD
:1025B0000CF4BECFC4EBD1E06E01E12CF12C00E0B5
:1025C00010E0A12CB12C8091C801282F082E000CFE
:1025D000330BA216B3060CF05BC0E091B601F0918C
:1025E000B701818190E0B4E095958795BA95E1F7C0
:1025F000D60155968C935597009709F499CF9C0175
:102600002150310982239323892B09F681818F7010
:1026100056968C935697882309F48ACF90E09C01B4
:102620002150310982239323892B09F0B0CF828175
:102630005A968C93BAE0CB0ED11C8C7F09F078CFE0
:1026400083E090E00E94021B9301F601008802C023
:10265000220F331F0A94E2F78091E7019091E8017D
:10266000822B932B9093E8018093E701838590E080
:10267000081719070CF48C01D6011C968C9190E078
:10268000E816F9060CF47C01BFEFAB1ABB0A9BCF2E
:10269000813049F48093CA018093C901EE24E39408
:1026A000F12C01E010E0B801E3E0660F771FEA9536
:1026B000E1F77093C5016093C4019701F3E0220F25
:1026C000331FFA95E1F73093C7012093C601C090FC
:1026D000BC01D090BD01CB018C0D9D1D01970E94C6
:1026E0002427262E6093C0017093C101A090BE01E3
:1026F000B090BF01C9018A0D9B1D0197B9010E94CD
:1027000024277093C3016093C201E0E0F0E0809160
:10271000C801082E000C990BE817F907CCF53D8885
:10272000832C912CC89CC001C99C900DD89C900D05
:102730001124800F911F0197B8010E942427462F72
:102740006F8B2E8930E0A29EC001A39E900DB29E99
:10275000900D11248E0D9F1D0197B7010E94242713
:10276000862F688F329C302C1124330C330C330CA1
:10277000398E433020F40815190509F008CF83304D
:1027800020F4E216F30609F002CF31962A96BFCF65
:102790008091BA019091BB011EC00E942B1B8091B9
:1027A000B4019091B501892B09F0B5CE8091BA01A1
:1027B0009091BB01823091050CF4BACEE091B60144
:1027C000F091B701208131813227232732273093BE
:1027D000700220936F020E94021B9DCE0E943E2039
:1027E0009ACE069721F41092B5011092B401E091AF
:1027F0005703F091580382E08083E0915303F091F6
:1028000054031082E0915503F09156038FEC8083BE
:1028100010925F03E0915B03F0915C0386E080839C
:10282000E0915903F0915A03808180618083E091A7
:102830005903F0915A03808188608083E0915903A5
:10284000F0915A03808180688083E0915903F09170
:102850005A0380818F7D80838EE491E00E94130E65
:10286000109225041092240461E080911C040E94BF
:10287000480C61E080911B040E94480C80911B046D
:1028800090E0FC01E35CF84FE491F0E0EE0FFF1FF5
:10289000ED5CF84F25913491309318042093170480
:1028A000FC01EF5AF84FE491E093220480911C045C
:1028B00090E0FC01E35CF84FE491F0E0EE0FFF1FC5
:1028C000ED5CF84F2591349130931A04209319044C
:1028D000FC01EF5AF84FE491E09323048091100437
:1028E000882341F00E948E0D80E5809311041092A0
:1028F000120449C061E080911F040E94480C61E00D
:1029000080911E040E94480C80911F0490E0FC01FD
:10291000E35CF84FE491F0E0EE0FFF1FED5CF84F41
:10292000A591B491B0931604A0931504FC01EF5A3D
:10293000F84F84918093210420911E0430E0F90126
:10294000E35CF84FE491F0E0EE0FFF1FED5CF84F11
:10295000459154915093140440931304F901EF5A94
:10296000F84FE491E09320049C91E82FE095E9234F
:10297000EC93E0911304F091140490818091200471
:10298000809589238083E0911704F0911804908149
:102990008091220480958923808380911D0488235F
:1029A00021F161E00E94480C61E080911D040E94C9
:1029B000FB0B64EF71E080E090E00E94840C60E02B
:1029C00080911D040E94FB0B64EF71E080E090E0B9
:1029D0000E94840C61E080911D040E94FB0B64EF57
:1029E00071E080E090E00E94840C82E491E00E941B
:1029F000C40D85E391E00E94C40D8AE091E00E943D
:102A0000C40D82E080930F0485E691E00E94500E91
:102A10000E94BE0C6B017C016FE170E082EF93E0DD
:102A20000E94DF030E94BE0C6C197D0980E090E0DB
:102A30004AE00E945C0E0E94250E60E971E080E091
:102A400090E00E94840C61E282EF93E00E94CF0745
:102A500066E382EF93E00E94CF07C1E0C0930704D2
:102A600068EA82EF93E00E94A80780EA90E09093E2
:102A7000FB038093FA0380E890E09093FD0380933A
:102A8000FC03C093060488E791E00E94500E84E6A0
:102A9000C82ED12CE12CF12C90E1892E97E2992EB1
:102AA000A12CB12CD1E02AE0222E312C83ED94E030
:102AB0000E94680B181619060CF037C483ED94E0D9
:102AC0000E94800BC82F682F87E493E00E94610A60
:102AD0008091C3049091C404A091C504B091C60430
:102AE0000196A11DB11D8093C3049093C404A093CB
:102AF000C504B093C604C43209F471C2E091BD04A8
:102B0000C53234F4CA3071F0CD3009F076C20AC053
:102B1000CA3241F0CC3209F070C28091AA048C27ED
:102B20008093AA04EF3008F046C2F0E0E455FB4F72
:102B300010828091AB04882309F426C12091AC0453
:102B40003FEB320F822F022E000C990B363010F41F
:102B5000C79707C02156263018F48755910901C040
:102B6000C097282F2295207F3091AD044FEB430F63
:102B7000832F032E000C990B463010F4C79707C023
:102B80003156363018F48755910901C0C097820F2D
:102B90009091AA048913E4C08091CF049091D0044D
:102BA000A091D104B091D2040196A11DB11D8093D2
:102BB000CF049093D004A093D104B093D204809119
:102BC000BE04882399F08091C7049091C804A09115
:102BD000C904B091CA040196A11DB11D8093C70418
:102BE0009093C804A093C904B093CA041091BB0485
:102BF0001123B9F1113009F082C088E494E00E94F9
:102C0000670686E594E00E9467068091BE048823EB
:102C100009F475C087E0E6E3F4E0A8E2B4E00190CF
:102C20000D928A95E1F787E0EDE3F4E0AFE2B4E0DE
:102C300001900D928A95E1F70E94BE0C60934404C6
:102C4000709345048093460490934704109327049F
:102C50001093260484E694E00E94500682E794E0F4
:102C60004CC086E594E00E9467068091BE048823EC
:102C700021F187E0E6E3F4E0A8E2B4E001900D92F0
:102C80008A95E1F787E0EDE3F4E0AFE2B4E001908C
:102C90000D928A95E1F70E94BE0C609344047093F4
:102CA00045048093460490934704D0932704D0931F
:102CB000260480E894E00E94500680919804909148
:102CC0009904A0919A04B0919B04809394049093EA
:102CD0009504A0939604B09397040E94BE0C609351
:102CE0009004709391048093920490939304D093F2
:102CF0008F04D0938E048CE994E00E9450060091DA
:102D0000C1041091C2040115110509F456C1E091E6
:102D1000C104F091C20466A177A1F80186A197A130
:102D20000E949B27892B09F048C1B801C801409631
:102D30000E94A4270E94BE0CD80190966D937D93AB
:102D40008D939C939397E1E09596EC939597F1E0A2
:102D50009496FC9394979A960D911C919B97D3CF40
:102D60008091CB049091CC04A091CD04B091CE047D
:102D70000196A11DB11D8093CB049093CC04A09328
:102D8000CD04B093CE0417C19091BC04911148C0FA
:102D900068E871E08CEA94E00E949B27892B41F05F
:102DA0006EE871E08CEA94E00E949B27892B19F46D
:102DB000D093BB0416C064E971E08CEA94E00E94F1
:102DC0009B27892B41F06AE971E08CEA94E00E942C
:102DD0009B27892B19F41092BB0403C022E0209397
:102DE000BB048091BF049091C0049093C20480936F
:102DF000C1040091C1041091C2040115110509F428
:102E0000DAC06CEA74E0D80196968D919C91979700
:102E10000E949B2797FFC9C0F80182A593A5E5CF23
:102E2000E091BB04E23009F491C08091AC048823A6
:102E300009F48CC020E2E29FF0011124E92B3197C4
:102E4000E932F10508F082C0EC5CFF4F0C945A2780
:102E50008CEA94E00E94060760935C0470935D0422
:102E600080935E0490935F0471C091E0813409F017
:102E700043C043C066E374E009C091E0833509F0C4
:102E800090E090933C0462C06DE374E08CEA94E0BF
:102E90000E947E065BC091E0873509F090E0909338
:102EA000430454C08CEA94E00E94060760936E04C9
:102EB00070936F04809370049093710447C08CEA00
:102EC00094E00E94060760937C0470937D048093D5
:102ED0007E0490937F043AC08CEA94E00E949C2484
:102EE00060934E0470934F04809350049093510468
:102EF0002DC091E081330CF490E09093BE0426C085
:102F00008CEA94E00E949C24609398047093990446
:102F100080939A0490939B0419C08CEA94E00E94D9
:102F200006076093A6047093A7048093A804909367
:102F3000A9040CC08CEA94E00E94060760938A04FE
:102F400070938B0480938C0490938D040091C10442
:102F50001091C2040115110571F1E091C104F091C5
:102F6000C20466A177A1D80196968D919C919797FE
:102F70000E949B27892BF9F4F80120A531A58091A7
:102F8000BC0490E082179307B4F02817390739F48E
:102F900040E150E06CEA74E0C8010E94AB27D80120
:102FA0009A960D911C919B97D5CF892B21F0109269
:102FB000C2041092C10480E001C081E09091BC0481
:102FC0009F5F9093BC041092BD0491E0CA3209F057
:102FD00090E09093AB04882309F468CD22C010924E
:102FE000BD041092BC041092AA04B2E0B093BB04DA
:102FF0001092AB041092BE0459CDEE3040F481E043
:103000008E0F8093BD04F0E0E455FB4FC0838091A8
:10301000AB0481114BCD8091AA04C827C093AA04A8
:1030200045CD89EB91E00E94290E809126048823EA
:1030300009F457C01092270460912A0470912B0460
:1030400080912C0490912D040E94EB2528E23BE610
:103050004EE65EE40E944A252B013C016091280463
:103060007091290480E090E00E94EB259B01AC0167
:10307000C301B2010E94D92420912E04211190583D
:1030800046E00E94A40E87EB91E00E94290E109268
:10309000270460913104709132048091330490913F
:1030A00034040E94EB2528E23BE64EE65EE40E94F3
:1030B0004A252B013C0160912F047091300480E07F
:1030C00090E00E94EB259B01AC01C301B2010E947C
:1030D000D924209135042111905846E00E94A40E75
:1030E00004C08FEA91E00E94290E81EA91E00E94DB
:1030F000290E80914804882309F446C0109249049F
:1031000060914A0470914B0480914C0490914D045D
:10311000A70196010E943827CA01B901A7019601AB
:103120000E943827862F0E949D0E8FE991E00E9411
:10313000290E1092490460914A0470914B048091C9
:103140004C0490914D04A50194010E943827822FD0
:103150000E949D0E8DE991E00E94290E1092490473
:1031600060914A0470914B0480914C0490914D04FD
:10317000A70196010E9438276053784F80E090E0C5
:103180004AE00E945C0E04C085E991E00E94290E8D
:1031900083E991E00E94290E80915604882309F466
:1031A000BDC01092570460915804709159048091E9
:1031B0005A0490915B0420E432E44FE050E00E9416
:1031C00038272A3020F481E991E00E94290E1092DC
:1031D0005704609158047091590480915A04909159
:1031E0005B0420E432E44FE050E00E943827822F55
:1031F0000E949D0E8FE891E00E94290E10925704C4
:10320000609158047091590480915A0490915B0424
:10321000A50194010E943827CA01B901A7019601AE
:103220000E9438276A3020F48DE891E00E94290E30
:1032300010925704609158047091590480915A0477
:1032400090915B04A50194010E943827CA01B9013D
:10325000A70196010E943827862F0E949D0E8BE8B9
:1032600091E00E94290E10925704609158047091C9
:10327000590480915A0490915B04A70196010E9421
:103280003827CA01B901A70196010E9438276A3080
:1032900020F489E891E00E94290E10925704609171
:1032A00058047091590480915A0490915B04A701CD
:1032B00096010E943827CA01B901A70196010E9410
:1032C0003827862F0E949D0E87E891E00E94290EE4
:1032D00010925704609158047091590480915A04D7
:1032E00090915B04A70196010E9438276A3020F470
:1032F00085E891E00E94290E1092570460915804CD
:103300007091590480915A0490915B04A701960131
:103310000E943827862F0E949D0E04C08DE791E001
:103320000E94290E0E94250EC1CB0E94250E0E94EC
:10333000BE0C693873418105910588F08091C30402
:103340009091C404A091C504B091C6040A97A10548
:10335000B10528F484EC91E00E94440EFFCF64E0B4
:1033600070E080E090E00E94840C8091F9029091DE
:10337000FA02853CF9E09F07ECF01092FA021092F5
:10338000F9021092FF031092FE0330920104209282
:1033900000046FE174E082EF93E00E94DF0310927B
:1033A00003041092020410920504109204040E9477
:1033B000D00A7CCB01969093FA028093F902F7CF62
:1033C000CF93DF93EC018091ED019091EE018C178A
:1033D0009D072CF4209719F0CE010E94861F809142
:1033E000ED019091EE018C1B9D0B9093EE0180936B
:1033F000ED01DF91CF910895EF92FF920F931F930C
:10340000CF93DF93EC018B0180E190E00E94861F57
:10341000FC0198819F7021E030E002C0220F331F31
:103420009A95E2F761E070E0E217F30764F0229604
:1034300098819F70AB0102C0440F551F9A95E2F727
:10344000240F351FF1CF888182958F708F5F90E0B8
:103450000E94E019C9810115110511F0F801C0831E
:10346000CF7009F1EC2EF12CC7010E94861F8C0150
:10347000C7010E94E019F1E0EF1AF10881E090E045
:1034800002C0880F991FEA94E2F7081719076CF435
:103490008FEF9FEF02C0880F991FCA95E2F7019640
:1034A000080F191F02C000E010E0C801DF91CF91A2
:1034B0001F910F91FF90EF900895CF92DF92EF92BE
:1034C000FF920F931F93CF93DF93C091B601D091DA
:1034D000B701C157D240C234D1050CF48AC006E806
:1034E00010E07801EC1AFD0A2297DE01AF58BD4FBB
:1034F000E1E7F2E0CF01815792408E159F051CF461
:103500008D918193F7CF8701F7FE02C000E010E0B4
:10351000C8018F589D4F7C012091F7023091F8022D
:10352000211592E039078CF08091F5029091F60216
:1035300001969093F6028093F50280E092E0821B60
:10354000930B9093F8028093F7024091F702509109
:10355000F802CE01840F951F6091F5027091F6027A
:10356000813092408CF4072E000C880B990B870158
:103570009E010E94E70F8823B1F18091F70290919C
:10358000F802C80FD91F2BC000E012E06801C41A6E
:10359000D50ACB0101969093F6028093F502C114EF
:1035A000D10441F0072E000C880B990B870196017E
:1035B0000E94E70FCC19DD0991F087010C0D1D1D4C
:1035C0004091F7025091F8026091F5027091F60275
:1035D000072E000C880B990B9E010E94E70FD093D9
:1035E000F802C093F70283E792E09093B7018093CB
:1035F000B601DF91CF911F910F91FF90EF90DF9077
:10360000CF9008952091B6013091B701280F391F4E
:103610003093B7012093B6012091B8013091B901E0
:10362000281B390B3093B9012093B8014091BA019E
:103630005091BB01BA01681B790B7093BB01609379
:10364000BA0137FF06C085E090E09093B501809302
:10365000B4010C945D1A2091B8013091B901223067
:1036600031053CF485E090E09093B5018093B4017E
:103670000895E091B601F091B7018081918198277A
:10368000892798279093BB018093BA01281739079F
:103690004CF382E090E00C94021B97FD05C08F3F35
:1036A000910509F01CF4089580E008958FEF0895C6
:1036B0002F923F924F925F926F927F928F929F9242
:1036C000AF92BF92CF92DF92EF92FF920F931F9330
:1036D000CF93DF93CDB7DEB76B970FB6F894DEBF0D
:1036E0000FBECDBF8C011B01942E198280E8EFEE36
:1036F000F1E0DF011D928A95E9F7F801878190E0FA
:1037000001978330910540F4880F991FFC01E05028
:10371000FF4F8081918102C083E396E060E070E01A
:103720000E94FC19D80118962D913C911997820F8F
:10373000931F19969C938E9318971596EC91B0E46D
:10374000EB9FF0011124E557F94F4081489F90010C
:10375000499F300D11243093F0012093EF01E12CAB
:10376000F12CF801868190E001978330910540F4B7
:10377000880F991FFC01E050FF4F8081918102C0AA
:1037800083E396E0BE016F5F7F4F0E94FC192981A1
:10379000211105C0EFEEF1E055EB852E3BC0322F35
:1037A0003F7049F4203F39F085E090E09093B501F7
:1037B0008093B40176C330E044E0359527954A956F
:1037C000E1F72F5F3F4FE20EF31EF0E4EF16F10436
:1037D0005CF7F701E55BF94FE081EE0FFF0BEC546E
:1037E000FE4FD80115962C91D70130E4239FA00DF0
:1037F000B11D1124A557B94F4C91489F9001499F85
:10380000300D112434AF23AF4FE3E416F10409F077
:10381000A8CFC0CF8085582E550C550C550C412C87
:10382000A485B58564807580E280F3800685178560
:103830006285738526813781CD01862997298E2956
:103840009F29802B912B862B972B822B932B8429BE
:103850009529892BC1F48081918123E0880F991FDC
:103860002A95E1F79787868795878487938782874C
:1038700091878087978386839583848393838283CC
:103880009183808300C18081880F880F880F8B838C
:103890001A828A819B8180589F4F6701C00ED11E7A
:1038A00045E3A42E42E0B42ECA9CA001CB9C500D4F
:1038B000DA9C500D11240F2EF4EECF2EF8E0DF2EFF
:1038C000F02DEC9C5001ED9CB00CFC9CB00C112434
:1038D0007501E40EF51EF986E8860F2EF2EBAF2E89
:1038E000F2EFBF2EF02D0A9D70010B9DF00C1A9D7A
:1038F000F00C11244E0D5F1D7B01E20EF31E18E645
:10390000C12E19E0D12EEC9C8001ED9C100DFC9C89
:10391000100D11240F2EF1EEAF2EFCEFBF2EF02D67
:103920006A9D70016B9DF00C7A9DF00C1124E00EE5
:10393000F11E6FE4C62E60EFD62E2C9DB0012D9D9A
:10394000700D3C9D700D1124060F171F9201280F5A
:10395000391F84199509BD01660D771D0F2EF4E5F9
:10396000AF2EF4E0BF2EF02D6A9D60016B9DD00C50
:103970007A9DD00C112468E3A62E61EFB62EAA9D85
:10398000B001AB9D700DBA9D700D11246C0D7D1DA5
:10399000A0E2AA2EA6E0BA2E6A9CD0016B9CB00DC4
:1039A0007A9CB00D1124BF83AE83AC0DBD1D68841D
:1039B00079846E0C7F1CA884B984AE18BF087A0184
:1039C000E00EF11E401B510B6901CA0EDB1E2A1BC3
:1039D0003B0BDC01A60FB71F861B970B8501040F5D
:1039E000151F809EB001819E700D112460587F4F7D
:1039F000672F770F770BA41AB50A8A9CA0018B9CBE
:103A0000500D112440585F4F452F550F550B830122
:103A10000C0D1D1D012F000F000B108301838D0164
:103A2000060F171F012F000F000B128303838C0159
:103A3000040F151F012F000F000B1483058387014E
:103A4000020F131F012F000F000B168307832E197F
:103A50003F09232F220F220B30872187841B950BD0
:103A6000892F880F880B92878387A61BB70B8B2F14
:103A7000880F880BB4878587C618D7088D2D880FC7
:103A8000880BD6868787709602E0EF36F00709F03C
:103A9000C1CE34EB632E31E0732E3F822E82492C4F
:103AA000512C5B824A82440C551C5B8E4A8E03E08B
:103AB000909E50011124B98EA88E4A805B80440CE0
:103AC000551C440C551C5F8A4E8A05E0909E50019F
:103AD0001124BD8AAC8A06E0909E200111245B8AE5
:103AE0004A8A07E0909E20011124598A488A812C35
:103AF000912C0E811F81F301E558FF4F20812D830A
:103B00001C82B096C080D180E054F109A080B180C1
:103B10007097E080F180E05AFF4FA081B181B097AB
:103B200040805180C30185599F4FFC018081918164
:103B300096012A293B292E293F292A2B3B2B242970
:103B40003529282B392B4C815D81242B352B232BB8
:103B5000D9F4D301DB968D919C91DC97809626E079
:103B6000959587952A95E1F780589F4F0E944D1BA8
:103B700028E030E0F80180834A805B80040D151D49
:103B800021503109B9F77CC1F301F3ADFF871E86DF
:103B90002E853F85305EB7016A0F7B1F05E312E07B
:103BA000609FA001619F500D709F500D11244C5FCC
:103BB0005F4FE4EEF8E0EE9EB001EF9E700DFE9ECA
:103BC000700D1124640F751FE3E075956795EA95F4
:103BD000E1F7F2EBEF2EF2EFFF2EAE9D8001AF9DED
:103BE000100DBE9D100D1124400F511FA3E05595DF
:103BF0004795AA95E1F78201080F191FE8E6F9E059
:103C00000E9FD0010F9FB00D1E9FB00D1124149672
:103C100001EE1CEF409E7001419EF00C509EF00C96
:103C20001124EA0EFB1E13E0F594E7941A95E1F7D0
:103C30000FE4402E00EF502E849DF001859DF00D85
:103C4000949DF00D1124AE0FBF1F83E0B595A7958D
:103C50008A95E1F78C819D81820F931F0C811D81D4
:103C6000201B310B86010A0D1B1DE4E54E2EE4E0FE
:103C70005E2E049DF001059DF00D149DF00D1124A4
:103C8000349618E3412E11EF512EC49C8001C59C3F
:103C9000100DD49C100D11240E0F1F1F15950795A4
:103CA00015950795159507950F2EF0E24F2EF6E026
:103CB0005F2EF02DA49C6001A59CD00CB49CD00C70
:103CC0001124EC0DFD1DF595E795F595E795F59516
:103CD000E7955B01AE0CBF1CB986A8866E197F09FB
:103CE0007A01EA0EFB1E4A1B5B0B6C01CE0EDF1E37
:103CF000DB86CA866C01CE1ADF0A2901400E511EEE
:103D00005D864C865901A01AB10A8501CB01840F4A
:103D1000951F25EBB22EB89E2001B99E500C1124A0
:103D200020E8420E511C452C550C5508641B750BA0
:103D300035EB369F5001379FB00C112440E8A40E9C
:103D4000B11CAB2CBB0CBB08888599856A857B852B
:103D5000860F971F990F880B990F982F881F8058EF
:103D60009F4F0E944D1BAE81BF818C938C859D859A
:103D7000840D951D990F880B990F982F881F8058D7
:103D80009F4F0E944D1BEA81FB81E80DF91DE20D5A
:103D9000F31D8083C8018A0D9B1D990F880B990F15
:103DA000982F881F80589F4F0E944D1BEA8DFB8DD6
:103DB000E80DF91DE20DF31D8083C7018C0D9D1DDB
:103DC000990F880B990F982F881F80589F4F0E943A
:103DD0004D1BE88DF98DE80DF91DE20DF31D808373
:103DE000C6018E199F09990F880B990F982F881F6C
:103DF00080589F4F0E944D1BEE89FF89E80DF91DE9
:103E0000E20DF31D8083C8018A199B09990F880B65
:103E1000990F982F881F80589F4F0E944D1BEC8947
:103E2000FD89E80DF91DE20DF31D80838C859D85CC
:103E300084199509990F880B990F982F881F80581E
:103E40009F4F0E944D1BEA89FB89E80DF91DE20D89
:103E5000F31D80838A859B8548845984841995093C
:103E6000990F880B990F982F881F80589F4F0E9499
:103E70004D1BE889F989E80DF91DE20DF31D8083DA
:103E80000FEF801A900A12E0610E711C0E811F81E3
:103E90000F5F1F4F1F830E8318E08116910409F0F6
:103EA00028CE6B960FB6F894DEBF0FBECDBFDF9164
:103EB000CF911F910F91FF90EF90DF90CF90BF9027
:103EC000AF909F908F907F906F905F904F903F90BA
:103ED0002F9008958AE391E09093D4048093D304C3
:103EE0008091B2019091B301835D944071F4E091AF
:103EF000E604F091E70490818091E804809589239D
:103F000080831092B3011092B20108959F92AF92F4
:103F1000BF92CF92DF92EF92FF920F931F93CF93B6
:103F2000DF93EC0185E0A82EB12C8091ED019091FA
:103F3000EE018C179D070CF080C02091B8013091E4
:103F4000B9011216130654F0F090EB01E12C970121
:103F50002F6F3093EC012093EB0169C0E091B60123
:103F6000F091B701CF0101969093B7018093B6010C
:103F700090800E945D1A8091B8019091B9010197DB
:103F80009093B9018093B8012091ED013091EE0139
:103F9000285F3F4F3093EE012093ED01D090EB016D
:103FA000C12C960129293093EC012093EB012FEFCE
:103FB0009212BBCF892B49F1E091B601F091B70184
:103FC000CF0101969093B7018093B60190800E9433
:103FD0005D1A8091B8019091B90101979093B90150
:103FE0008093B80149ED941639F08FEF981609F4D3
:103FF0009CCF911006C099CF1092B9011092B801D0
:1040000094CF892D887F803D29F0B092B501A09290
:10401000B4018BCF1091EB0100E0C8018929909386
:10402000EC018093EB018091ED019091EE010896F7
:104030009093EE018093ED0178CF8C1B9D0B209126
:10404000EB013091EC0102C0359527958A95E2F796
:1040500081E090E002C0880F991FCA95E2F70197AE
:1040600082239323DF91CF911F910F91FF90EF90C7
:10407000DF90CF90BF90AF909F9008952F923F9286
:104080004F925F926F927F928F929F92AF92BF9268
:10409000CF92DF92EF92FF920F931F93CF93DF9314
:1040A000CDB7DEB7C958D1400FB6F894DEBF0FBE0A
:1040B000CDBF40906F025090700221E030E02C0F95
:1040C0003D1F3093FC022093FB020E942B1B80912A
:1040D000B4019091B501892B09F04DC28091C801BE
:1040E000082E000C990B9C012E5F3F4F220F331FAF
:1040F0004091BA015091BB01421753071CF485E06F
:1041000090E0F4C1E091B601F091B701208130E078
:104110008217930719F082E090E0E8C181E090E017
:104120000E94021B04EB11E0E12CF12C8091C801EC
:10413000082E000C990BE091B601F091B701E8163A
:10414000F906ECF48181065F1F4F982F9E7EB9F629
:1041500090E024E0959587952A95E1F7D80152964D
:104160008C93529781818170826051968C9382E00A
:1041700090E00E94021BBFEFEB1AFB0AD7CF8081B1
:104180008111C9CF81818F3331F682818111C3CFF3
:104190008091BA019091BB010E94021BCB57DE4F68
:1041A00019821882C558D140212C312C612C712CD8
:1041B00009EC11E0E12CF12C8091C801082E000CD3
:1041C000990BE816F9060CF056C0812C912CA12C05
:1041D000B12CF801818190E0A816B9060CF045C019
:1041E000C12CD12CC4018C0D9D1DD8012C9130E027
:1041F000C216D306ACF5E114F104C9F4BC017595FF
:104200006795A4E0660F771FAA95E1F7817099275B
:10421000680F791FB3E0660F771FBA95E1F7E1E009
:10422000F0E0EC0FFD1F6E0F7F1F40E10BC048E078
:10423000BE01F1E0EF16F10419F46F5F7E4F02C08A
:104240006F5B7E4FC8010E94581B8091B401909112
:10425000B501892B09F08FC12FEFC21AD20AC2CF44
:104260003FEFA31AB30A4C01B4CF4FEFE41AF40A9C
:10427000065F1F4FA1CFA10164E0440F551F6A954F
:10428000E1F70FE0040FB301E4E0660F771FEA9552
:10429000E1F72FE0260F82EF93E00E94FE07CE01A8
:1042A00001964C01C12CD12CC60195958795DC0156
:1042B00053E0AA0FBB1F5A95E1F7C957DE4FB983E8
:1042C000A883C758D140CD57DE4F99828882C35802
:1042D000D140A12CB12CC50195958795C957DE4FCA
:1042E000E881F981C758D1408E0F9F1FCD57DE4F0F
:1042F000A881B981C358D1400D91CD57DE4FB98304
:10430000A883C358D14010E0102F0027E1E0F1E06E
:10431000EC0FFD1FE80FF91F208130E0F901E05894
:10432000F109CF57DE4FF983E883C158D140E1E46A
:10433000F1E0EC0FFD1FE80FF91FE080F12CF0E831
:10434000EF1AF10847E651E0E49E9001E59E300D3A
:10435000F49E300D1124200F311F20583F4F832F22
:10436000932F990F990B0E944D1BC757DE4F8883DF
:10437000C958D14068EACF57DE4F48815981C158AA
:10438000D14064039001659F300D1124200F311F2F
:10439000A9E4AE9DC001AF9D900D9E191124280F78
:1043A000391F20583F4F832F932F990F990B0E944D
:1043B0004D1BF82ECF57DE4FE881F981C158D1400F
:1043C00026EC31E0E29FC001E39F900DF29F900D3B
:1043D0001124080F191F00581F4F812F912F990F7B
:1043E000990B0E944D1B282F4F2DC757DE4F688118
:1043F000C958D14082EF93E00E94FC03182F092F87
:1044000080911004882331F080911104909112045E
:104410000E94A507E0911904F0911A0490818091FF
:104420002304892B8083E0911704F0911804908174
:104430008091220480958923808380910F048230AB
:1044400031F4812F902F0E945F07182F092F602FC2
:1044500082EF93E00E947D07612F82EF93E00E943C
:104460007D07E0911704F091180490818091220457
:10447000892B80838091100481110E9472073FEF85
:10448000A31AB30A40E1A416B10409F024CF50E105
:10449000850E911C6FEFC61AD60A80E1C816D104AA
:1044A00009F002CF9FEF691A790A8091C0019091BB
:1044B000C1016816790664F0AFEF2A1A3A0A8091B2
:1044C000C2019091C3012816390674F4612C712C35
:1044D00080916F0290917002892B09F469CEB1E04E
:1044E0004B1A510841F064CE86E090E09093B501FC
:1044F0008093B40140C08091ED019091EE01887FDE
:1045000099279093EE018093ED0180E190E00E9465
:10451000861F8C0180E190E00E94E019C801887F2D
:10452000C09609F0ECCD07701127CB57DE4FE8811C
:10453000F981C558D140E017F10709F0E0CDCF016E
:1045400001969C0127703327CB57DE4F3983288390
:10455000C558D14040906F02509070021092D20125
:104560001092D1011092DC011092DB011092E60151
:104570001092E5011DCEC757DE4F0FB6F894DEBF8F
:104580000FBECDBFDF91CF911F910F91FF90EF90A4
:10459000DF90CF90BF90AF909F908F907F906F9063
:1045A0005F904F903F902F90089510924A03109281
:1045B000490388EE93E0A0E0B0E080934B03909332
:1045C0004C03A0934D03B0934E032AE031E03093A7
:1045D00048032093470325EC30E0309354032093A5
:1045E000530324EC30E0309356032093550320EC22
:1045F00030E0309358032093570321EC30E03093A0
:104600005A032093590322EC30E030935C0320934B
:104610005B0326EC30E030935E0320935D03109241
:10462000600310926103109262031092630320E50D
:104630002093E4031092E5031092EB031092EC0335
:104640001092EF031092F1031092F5031092F4030D
:1046500060E870E07093F7036093F60340EA50E07F
:104660005093F9034093F8037093FB036093FA03AC
:104670005093FD034093FC03109207041092FF0334
:104680001092FE03109201041092000461E0609306
:1046900006044FEF5FEF50930504409304045093DA
:1046A000030440930204609308044CE151E05093EA
:1046B000F3034093F20320931104109212042AE0B2
:1046C00020931B0429E020931C0428E020931D0460
:1046D0006093100410921F0410921E041092D604CE
:1046E0001092D5048093D7049093D804A093D90452
:1046F000B093DA048AE391E09093D4048093D304D6
:104700001092EA041092E9041092EC041092EB0467
:104710001092EE041092ED041092F0041092EF0447
:104720008091F1048E7F8D7F8093F1048695817056
:10473000682783E00E94FB0B61E083E00E94480C45
:10474000E4E5F7E0E491E093E304E0E4F7E0E491EA
:10475000F0E0EE0FFF1FED5CF84F85919491909380
:10476000E5048093E40460E082E00E94480C8091BC
:10477000F10481FD04C061E082E00E94FB0B82E055
:104780008093DF04E3E5F7E0E491E093E004EFE3F6
:10479000F7E0E491F0E0EE0FFF1FE75DF84F2591A1
:1047A00034913093E2042093E10410922604109295
:1047B0002704109229041092280410922A041092BF
:1047C0002B0410922C0410922D0410922E0410929F
:1047D000300410922F04109231041092320410927F
:1047E000330410923404109235041092370410925E
:1047F0003604109238041092390410923A04109240
:104800003B0410923C0410923E0410923D0410921E
:104810003F041092400410924104109242041092FE
:104820004304109248041092490410924A041092D2
:104830004B0410924C0410924D04109256041092A6
:104840005704109258041092590410925A0410926E
:104850005B04109264041092650410926A04109232
:104860006B0410926C0410926D04109272041092FA
:104870007304109278041092790410927A041092C2
:104880007B0410928004109281041092860410928E
:104890008704109288041092890410928E0410925A
:1048A0008F04109294041092950410929604109222
:1048B000970410929C0410929D041092A2041092EE
:1048C000A3041092A4041092A5041092AA041092BA
:1048D000AB048093BB041092BC041092BD041092F0
:1048E000BE041092C0041092BF041092C204109231
:1048F000C1041092C3041092C4041092C504109213
:10490000C6041092C7041092C8041092C9041092F1
:10491000CA041092CB041092CC041092CD041092D1
:10492000CE041092CF041092D0041092D1041092B1
:10493000D2041092AC0408951F93FC019927882794
:10494000BC01E89411911032E9F3193010F01E30D7
:10495000C8F31B3251F01D3249F4689406C00E941E
:10496000C324610F711D811D911D119110531A30C7
:10497000B0F33EF490958095709561957F4F8F4F81
:104980009F4F1F910895592F482F372F262F660FBD
:10499000771F881F991F660F771F881F991F620F47
:1049A000731F841F951F660F771F881F991F089517
:1049B0005058BB27AA270E94F0240C9463260E941B
:1049C000552638F00E945C2620F039F49F3F19F4F8
:1049D00026F40C9452260EF4E095E7FB0C944C263A
:1049E000E92F0E94742658F3BA17620773078407E9
:1049F000950720F079F4A6F50C9496260EF4E09530
:104A00000B2EBA2FA02D0B01B90190010C01CA0188
:104A1000A0011124FF27591B99F0593F50F4503E33
:104A200068F11A16F040A22F232F342F4427585F25
:104A3000F3CF469537952795A795F0405395C9F73D
:104A40007EF41F16BA0B620B730B840BBAF09150F5
:104A5000A1F0FF0FBB1F661F771F881FC2F70EC094
:104A6000BA0F621F731F841F48F487957795679567
:104A7000B795F7959E3F08F0B0CF9395880F08F053
:104A80009927EE0F9795879508950E94282608F498
:104A900081E008950E945E250C9463260E945C26A6
:104AA00058F00E94552640F029F45F3F29F00C94FD
:104AB0004C2651110C9497260C9452260E94742671
:104AC00068F39923B1F3552391F3951B550BBB273D
:104AD000AA2762177307840738F09F5F5F4F220F82
:104AE000331F441FAA1FA9F335D00E2E3AF0E0E879
:104AF00032D091505040E695001CCAF72BD0FE2FC3
:104B000029D0660F771F881FBB1F26173707480756
:104B1000AB07B0E809F0BB0B802DBF01FF2793580E
:104B20005F4F3AF09E3F510578F00C944C260C9460
:104B300097265F3FE4F3983ED4F386957795679583
:104B4000B795F7959F5FC9F7880F911D9695879543
:104B500097F90895E1E0660F771F881FBB1F621762
:104B600073078407BA0720F0621B730B840BBA0B20
:104B7000EE1F88F7E09508950E947C2688F09F57E5
:104B800098F0B92F9927B751B0F0E1F0660F771F71
:104B9000881F991F1AF0BA95C9F714C0B13091F067
:104BA0000E949626B1E008950C949626672F782FE0
:104BB0008827B85F39F0B93FCCF38695779567952C
:104BC000B395D9F73EF490958095709561957F4F98
:104BD0008F4F9F4F0895E89409C097FB3EF490953E
:104BE0008095709561957F4F8F4F9F4F9923A9F0C6
:104BF000F92F96E9BB279395F69587957795679555
:104C0000B795F111F8CFFAF4BB0F11F460FF1BC098
:104C10006F5F7F4F8F4F9F4F16C0882311F096E92B
:104C200011C0772321F09EE8872F762F05C06623D9
:104C300071F096E8862F70E060E02AF09A95660F92
:104C4000771F881FDAF7880F9695879597F908954B
:104C5000990F0008550FAA0BE0E8FEEF161617068D
:104C6000E807F907C0F012161306E407F50798F0F5
:104C7000621B730B840B950B39F40A2661F0232B0E
:104C8000242B252B21F408950A2609F4A140A6958A
:104C90008FEF811D811D089597F99F6780E870E06F
:104CA00060E008959FEF80EC089500240A941616A2
:104CB000170618060906089500240A94121613060A
:104CC000140605060895092E0394000C11F4882398
:104CD00052F0BB0F40F4BF2B11F460FF04C06F5FB4
:104CE0007F4F8F4F9F4F089557FD9058440F551F8A
:104CF00059F05F3F71F04795880F97FB991F61F05E
:104D00009F3F79F087950895121613061406551FD4
:104D1000F2CF4695F1DF08C0161617061806991F40
:104D2000F1CF86957105610508940895E894BB2735
:104D300066277727CB0197F908950E94282608F463
:104D40008FEF08950E94B5260C9463260E94552685
:104D500038F00E945C2620F0952311F00C944C262C
:104D60000C94522611240C9497260E94742670F3FA
:104D7000959FC1F3950F50E0551F629FF001729F00
:104D8000BB27F00DB11D639FAA27F00DB11DAA1F0F
:104D9000649F6627B00DA11D661F829F2227B00D5C
:104DA000A11D621F739FB00DA11D621F839FA00DE7
:104DB000611D221F749F3327A00D611D231F849F37
:104DC000600D211D822F762F6A2F11249F5750408E
:104DD0009AF0F1F088234AF0EE0FFF1FBB1F661F09
:104DE000771F881F91505040A9F79E3F510580F0D2
:104DF0000C944C260C9497265F3FE4F3983ED4F332
:104E0000869577956795B795F795E7959F5FC1F775
:104E1000FE2B880F911D9695879597F908950E940E
:104E20002826880B990B0895DB018F939F930E948E
:104E30006027BF91AF91A29F800D911DA39F900D00
:104E4000B29F900D1124089597FB072E16F400943D
:104E500007D077FD09D00E94732707FC05D03EF4E8
:104E6000909581959F4F0895709561957F4F089516
:104E7000A1E21A2EAA1BBB1BFD010DC0AA1FBB1F5E
:104E8000EE1FFF1FA217B307E407F50720F0A21BD0
:104E9000B30BE40BF50B661F771F881F991F1A943D
:104EA00069F760957095809590959B01AC01BD0167
:104EB000CF010895EE0FFF1F0590F491E02D0994A6
:104EC0000E948727A59F900DB49F900DA49F800DF1
:104ED000911D11240895B7FF0C9460270E9460274C
:104EE000821B930B0895AA1BBB1B51E107C0AA1F8D
:104EF000BB1FA617B70710F0A61BB70B881F991F7B
:104F00005A95A9F780959095BC01CD010895A29F6F
:104F1000B001B39FC001A39F700D811D1124911D8D
:104F2000B29F700D811D1124911D089581E090E0C4
:104F3000F8940C94BA27FB01DC018D910190801943
:104F40000110D9F3990B0895FB01DC0101900D923A
:104F50000020E1F70895FB01DC014150504048F08A
:104F600001900D920020C9F701C01D9241505040A0
:104F7000E0F7089513E0C4EBD3E004C0FE010E9403
:0E4F80005A272196C53BD107C9F7F894FFCFF9
:104F8E00A503C102E30100000000610ACE09F80981
:104F9E00AE0A290A070A1B0A000000000D04CE09FA
:104FAE004D064C0680099A052009C0084B053D08A0
:104FBE00DF03F707FC0300000000180BCE094D06B7
:104FCE00170B680B800BFF0A312E302E320048650E
:104FDE006C6C6F2120535437373335205446542090
:104FEE005465737400496E697469616C697A65649D
:104FFE0028547567616C2900646F6E652C2074757A
:10500E0067617464696D2E004750524D4300474EE0
:10501E00524D4300475047474100474E47474100D6
:10502E000D0A006E616E00696E66006F7666000096
:107800000C94343C0C94513C0C94513C0C94513CE1
:107810000C94513C0C94513C0C94513C0C94513CB4
:107820000C94513C0C94513C0C94513C0C94513CA4
:107830000C94513C0C94513C0C94513C0C94513C94
:107840000C94513C0C94513C0C94513C0C94513C84
:107850000C94513C0C94513C0C94513C0C94513C74
:107860000C94513C0C94513C11241FBECFEFD8E036
:10787000DEBFCDBF11E0A0E0B1E0ECE9FFE702C060
:1078800005900D92A230B107D9F712E0A2E0B1E065
:1078900001C01D92AD30B107E1F70E942D3D0C945F
:1078A000CC3F0C94003C982F959595959595959582
:1078B000905D8F708A307CF0282F295A8091C0000B
:1078C00085FFFCCF9093C6008091C00085FFFCCF60
:1078D0002093C6000895282F205DF0CF982F809127
:1078E000C00085FFFCCF9093C6000895EF92FF92F1
:1078F0000F931F93EE24FF2487018091C00087FD22
:1079000017C00894E11CF11C011D111D81E4E8164B
:1079100082E4F8068FE0080780E0180770F3E09132
:107920000401F091050109958091C00087FFE9CF1E
:107930008091C6001F910F91FF90EF9008950E94D3
:10794000763C982F8091C00085FFFCCF9093C600B5
:1079500091362CF490330CF09053892F089597555D
:10796000892F08951F930E949F3C182F0E949F3CCF
:107970001295107F810F1F9108951F93182F882350
:1079800021F00E94763C1150E1F71F9108951F935A
:10799000182F0E94763C803249F0809103018F5F5E
:1079A000809303018530C1F01F9108958091C0003C
:1079B00085FFFCCF84E18093C6008091C00085FFE5
:1079C000FCCF1093C6008091C00085FFFCCF80E102
:1079D0008093C6001F910895E0910401F091050184
:1079E00009951F9108950E94763C803241F0809164
:1079F00003018F5F80930301853081F008958091AA
:107A0000C00085FFFCCF84E18093C6008091C00058
:107A100085FFFCCF80E18093C6000895E0910401CA
:107A2000F09105010995089540E951E08823A1F0FE
:107A30002D9A28EE33E0FA013197F1F721503040CA
:107A4000D1F72D9828EE33E0FA013197F1F7215064
:107A50003040D1F7815061F708953F924F925F9285
:107A60006F927F928F929F92AF92BF92CF92DF924E
:107A7000EF92FF920F931F93CF93DF93000080E16B
:107A80008093C4001092C50088E18093C10086E015
:107A90008093C2005098589A259A81E00E94143D24
:107AA00024E1F22E9EE1E92E85E9D82E0FE0C02ECA
:107AB00010E1B12EAA24A394B1E49B2EA6E58A2E50
:107AC000F2E57F2EE0E26E2E79E4572E63E5462E36
:107AD00050E5352E0E94763C8033B1F18133B9F107
:107AE000803409F46FC0813409F476C0823409F41B
:107AF00085C0853409F488C0803531F1823521F1A3
:107B0000813511F1853509F485C0863509F48DC0BC
:107B1000843609F496C0843709F403C1853709F423
:107B200072C1863709F466C0809103018F5F80932C
:107B30000301853079F6E0910401F0910501099582
:107B40000E94763C803351F60E94F33CC3CF0E94E2
:107B5000763C803249F78091C00085FFFCCFF092DF
:107B6000C6008091C00085FFFCCF9092C600809136
:107B7000C00085FFFCCF8092C6008091C00085FFC9
:107B8000FCCF7092C6008091C00085FFFCCF609250
:107B9000C6008091C00085FFFCCF5092C600809146
:107BA000C00085FFFCCF4092C6008091C00085FFD9
:107BB000FCCF3092C6008091C00085FFFCCFB09210
:107BC000C60088CF0E94763C863808F4BDCF0E945C
:107BD000763C0E94F33C7ECF0E94763C803809F4CC
:107BE0009CC0813809F40BC1823809F43CC1883942
:107BF00009F48FC080E00E94C73C6CCF84E10E94F2
:107C0000BD3C0E94F33C66CF85E00E94BD3C0E94D3
:107C1000F33C60CF0E94763C809306010E94763C44
:107C2000809307010E94F33C55CF0E94763C80333D
:107C300009F41DC183E00E94BD3C80E00E94C73C66
:107C400049CF0E94763C809309020E94763C809343
:107C5000080280910C028E7F80930C020E94763C79
:107C6000853409F415C18091080290910902892B8D
:107C700089F000E010E00E94763CF801E85FFE4FDA
:107C800080830F5F1F4F80910802909109020817AF
:107C9000190788F30E94763C803209F045CF809125
:107CA0000C0280FF01C16091060170910701660F0F
:107CB000771F7093070160930601A0910802B091AD
:107CC00009021097C9F0E8E0F1E09B01AD014E0F09
:107CD0005F1FF999FECF32BD21BD819180BDFA9A17
:107CE000F99A2F5F3F4FE417F50799F76A0F7B1F4B
:107CF00070930701609306018091C00085FFFCCF5F
:107D0000F092C6008091C00085FFFCCFB092C60003
:107D1000E1CE83E00E94C73CDDCE82E00E94C73CFA
:107D2000D9CE0E94763C809309020E94763C8093D3
:107D300008028091060190910701880F991F909386
:107D40000701809306010E94763C853409F4A6C0A1
:107D500080910C028E7F80930C020E94763C8032D0
:107D600009F0B8CE8091C00085FFFCCFF092C6002C
:107D7000609108027091090261157105B9F140E046
:107D800050E080910C02A82FA170B82FB27011C0E2
:107D9000BB2309F45CC0E0910601F0910701319624
:107DA000F0930701E09306014F5F5F4F46175707B7
:107DB000E8F4AA2369F3F999FECF209106013091E6
:107DC000070132BD21BDF89A90B58091C00085FFB2
:107DD000FCCF9093C6002F5F3F4F30930701209355
:107DE00006014F5F5F4F4617570718F38091C00099
:107DF00085FDE5CE8091C00085FFF8CFE0CE81E023
:107E00000E94C73C67CE0E94763C803209F08CCE3F
:107E10008091C00085FFFCCFF092C6008091C00029
:107E200085FFFCCFE092C6008091C00085FFFCCFAB
:107E3000D092C6008091C00085FFFCCFC092C600E2
:107E40008091C00085FFFCCFB092C60043CEE09188
:107E50000601F091070194918091C00085FFFCCF4D
:107E60009093C6009CCF80E10E94C73C33CE0E9415
:107E7000763C0E94763C182F0E94763C112309F430
:107E800083C0113009F484C08FE00E94C73C22CE29
:107E900080910C02816080930C02E5CE80910C02EF
:107EA000816080930C0259CF809107018823880F4D
:107EB000880B8A2180930B02809106019091070123
:107EC000880F991F90930701809306018091080203
:107ED00080FF09C080910802909109020196909359
:107EE000090280930802F894F999FECF1127E091D6
:107EF0000601F0910701C8E0D1E08091080290915D
:107F00000902103091F40091570001700130D9F34B
:107F100003E000935700E89500915700017001308D
:107F2000D9F301E100935700E89509901990009169
:107F3000570001700130D9F301E000935700E89534
:107F40001395103498F011270091570001700130FB
:107F5000D9F305E000935700E895009157000170B0
:107F60000130D9F301E100935700E895329602976A
:107F700009F0C7CF103011F00296E5CF112480919F
:107F8000C00085FFB9CEBCCE8EE10E94C73CA2CD19
:0C7F900085E90E94C73C9ECDF894FFCF0D
:027F9C00800063
:040000030000780081
:00000001FF
